{
  "address": "0xe7f1725E7734CE288F8367e1Bb143E90bb3F0512",
  "abi": [
    {
      "inputs": [
        {
          "internalType": "address",
          "name": "priceFeedAddress",
          "type": "address"
        }
      ],
      "stateMutability": "nonpayable",
      "type": "constructor"
    },
    {
      "inputs": [],
      "name": "FundMe__NotOwner",
      "type": "error"
    },
    {
      "stateMutability": "nonpayable",
      "type": "fallback"
    },
    {
      "inputs": [],
      "name": "MINIMUM_USD",
      "outputs": [
        {
          "internalType": "uint256",
          "name": "",
          "type": "uint256"
        }
      ],
      "stateMutability": "view",
      "type": "function"
    },
    {
      "inputs": [],
      "name": "cheapWithdraw",
      "outputs": [],
      "stateMutability": "nonpayable",
      "type": "function"
    },
    {
      "inputs": [],
      "name": "fund",
      "outputs": [],
      "stateMutability": "payable",
      "type": "function"
    },
    {
      "inputs": [
        {
          "internalType": "address",
          "name": "_addr",
          "type": "address"
        }
      ],
      "name": "getAddressToAmountFunded",
      "outputs": [
        {
          "internalType": "uint256",
          "name": "",
          "type": "uint256"
        }
      ],
      "stateMutability": "view",
      "type": "function"
    },
    {
      "inputs": [
        {
          "internalType": "uint256",
          "name": "_index",
          "type": "uint256"
        }
      ],
      "name": "getFunder",
      "outputs": [
        {
          "internalType": "address",
          "name": "",
          "type": "address"
        }
      ],
      "stateMutability": "view",
      "type": "function"
    },
    {
      "inputs": [],
      "name": "getOwner",
      "outputs": [
        {
          "internalType": "address",
          "name": "",
          "type": "address"
        }
      ],
      "stateMutability": "view",
      "type": "function"
    },
    {
      "inputs": [],
      "name": "getPriceFeed",
      "outputs": [
        {
          "internalType": "contract AggregatorV3Interface",
          "name": "",
          "type": "address"
        }
      ],
      "stateMutability": "view",
      "type": "function"
    },
    {
      "inputs": [],
      "name": "withdraw",
      "outputs": [],
      "stateMutability": "nonpayable",
      "type": "function"
    },
    {
      "stateMutability": "payable",
      "type": "receive"
    }
  ],
  "transactionHash": "0xa9d31b6261155d66159359572017320d75b0d8735993a300c070c78913cdf1bb",
  "args": [
    "0x5FbDB2315678afecb367f032d93F642f64180aa3"
  ],
  "numDeployments": 1,
  "solcInputHash": "7e852def9542eddf4d9b6543ba3bbfdc",
  "bytecode": "0x60a06040523480156200001157600080fd5b506040516200131238038062001312833981810160405281019062000037919062000120565b3373ffffffffffffffffffffffffffffffffffffffff1660808173ffffffffffffffffffffffffffffffffffffffff1660601b8152505080600260006101000a81548173ffffffffffffffffffffffffffffffffffffffff021916908373ffffffffffffffffffffffffffffffffffffffff1602179055505062000152565b600080fd5b600073ffffffffffffffffffffffffffffffffffffffff82169050919050565b6000620000e882620000bb565b9050919050565b620000fa81620000db565b81146200010657600080fd5b50565b6000815190506200011a81620000ef565b92915050565b600060208284031215620001395762000138620000b6565b5b6000620001498482850162000109565b91505092915050565b60805160601c6111936200017f6000396000818161035d01528181610601015261085001526111936000f3fe60806040526004361061007f5760003560e01c8063893d20e81161004e578063893d20e81461013b5780639e87a5cd14610166578063b60d428814610191578063d7b4750c1461019b5761008e565b80630343fb25146100a5578063206ddccd146100e25780633ccfd60b146100f95780636b69a592146101105761008e565b3661008e5761008c6101d8565b005b34801561009a57600080fd5b506100a36101d8565b005b3480156100b157600080fd5b506100cc60048036038101906100c79190610acb565b610312565b6040516100d99190610b11565b60405180910390f35b3480156100ee57600080fd5b506100f761035b565b005b34801561010557600080fd5b5061010e6105ff565b005b34801561011c57600080fd5b5061012561083f565b6040516101329190610b11565b60405180910390f35b34801561014757600080fd5b5061015061084c565b60405161015d9190610b3b565b60405180910390f35b34801561017257600080fd5b5061017b610874565b6040516101889190610bb5565b60405180910390f35b6101996101d8565b005b3480156101a757600080fd5b506101c260048036038101906101bd9190610bfc565b61089e565b6040516101cf9190610b3b565b60405180910390f35b6802b5e3af16b1880000610217600260009054906101000a900473ffffffffffffffffffffffffffffffffffffffff16346108e590919063ffffffff16565b11610257576040517f08c379a000000000000000000000000000000000000000000000000000000000815260040161024e90610c86565b60405180910390fd5b6000339080600181540180825580915050600190039060005260206000200160009091909190916101000a81548173ffffffffffffffffffffffffffffffffffffffff021916908373ffffffffffffffffffffffffffffffffffffffff16021790555034600160003373ffffffffffffffffffffffffffffffffffffffff1673ffffffffffffffffffffffffffffffffffffffff16815260200190815260200160002060008282546103099190610cd5565b92505081905550565b6000600160008373ffffffffffffffffffffffffffffffffffffffff1673ffffffffffffffffffffffffffffffffffffffff168152602001908152602001600020549050919050565b7f000000000000000000000000000000000000000000000000000000000000000073ffffffffffffffffffffffffffffffffffffffff163373ffffffffffffffffffffffffffffffffffffffff16146103e0576040517f579610db00000000000000000000000000000000000000000000000000000000815260040160405180910390fd5b60008080548060200260200160405190810160405280929190818152602001828054801561046357602002820191906000526020600020905b8160009054906101000a900473ffffffffffffffffffffffffffffffffffffffff1673ffffffffffffffffffffffffffffffffffffffff1681526020019060010190808311610419575b5050505050905060005b81518110156104ee57600082828151811061048b5761048a610d2b565b5b602002602001015190506000600160008373ffffffffffffffffffffffffffffffffffffffff1673ffffffffffffffffffffffffffffffffffffffff168152602001908152602001600020819055505080806104e690610d5a565b91505061046d565b50600067ffffffffffffffff81111561050a57610509610da3565b5b6040519080825280602002602001820160405280156105385781602001602082028036833780820191505090505b506000908051906020019061054e9291906109c1565b5060003373ffffffffffffffffffffffffffffffffffffffff164760405161057590610e03565b60006040518083038185875af1925050503d80600081146105b2576040519150601f19603f3d011682016040523d82523d6000602084013e6105b7565b606091505b50509050806105fb576040517f08c379a00000000000000000000000000000000000000000000000000000000081526004016105f290610e64565b60405180910390fd5b5050565b7f000000000000000000000000000000000000000000000000000000000000000073ffffffffffffffffffffffffffffffffffffffff163373ffffffffffffffffffffffffffffffffffffffff1614610684576040517f579610db00000000000000000000000000000000000000000000000000000000815260040160405180910390fd5b60005b60008054905081101561072f5760008082815481106106a9576106a8610d2b565b5b9060005260206000200160009054906101000a900473ffffffffffffffffffffffffffffffffffffffff1690506000600160008373ffffffffffffffffffffffffffffffffffffffff1673ffffffffffffffffffffffffffffffffffffffff1681526020019081526020016000208190555050808061072790610d5a565b915050610687565b50600067ffffffffffffffff81111561074b5761074a610da3565b5b6040519080825280602002602001820160405280156107795781602001602082028036833780820191505090505b506000908051906020019061078f9291906109c1565b5060003373ffffffffffffffffffffffffffffffffffffffff16476040516107b690610e03565b60006040518083038185875af1925050503d80600081146107f3576040519150601f19603f3d011682016040523d82523d6000602084013e6107f8565b606091505b505090508061083c576040517f08c379a000000000000000000000000000000000000000000000000000000000815260040161083390610e64565b60405180910390fd5b50565b6802b5e3af16b188000081565b60007f0000000000000000000000000000000000000000000000000000000000000000905090565b6000600260009054906101000a900473ffffffffffffffffffffffffffffffffffffffff16905090565b60008082815481106108b3576108b2610d2b565b5b9060005260206000200160009054906101000a900473ffffffffffffffffffffffffffffffffffffffff169050919050565b6000806108f183610921565b90506000670de0b6b3a7640000858361090a9190610e84565b6109149190610f0d565b9050809250505092915050565b6000808273ffffffffffffffffffffffffffffffffffffffff1663feaf968c6040518163ffffffff1660e01b815260040160a06040518083038186803b15801561096a57600080fd5b505afa15801561097e573d6000803e3d6000fd5b505050506040513d601f19601f820116820180604052508101906109a29190610fcb565b5050509150506402540be400816109b99190611046565b915050919050565b828054828255906000526020600020908101928215610a3a579160200282015b82811115610a395782518260006101000a81548173ffffffffffffffffffffffffffffffffffffffff021916908373ffffffffffffffffffffffffffffffffffffffff160217905550916020019190600101906109e1565b5b509050610a479190610a4b565b5090565b5b80821115610a64576000816000905550600101610a4c565b5090565b600080fd5b600073ffffffffffffffffffffffffffffffffffffffff82169050919050565b6000610a9882610a6d565b9050919050565b610aa881610a8d565b8114610ab357600080fd5b50565b600081359050610ac581610a9f565b92915050565b600060208284031215610ae157610ae0610a68565b5b6000610aef84828501610ab6565b91505092915050565b6000819050919050565b610b0b81610af8565b82525050565b6000602082019050610b266000830184610b02565b92915050565b610b3581610a8d565b82525050565b6000602082019050610b506000830184610b2c565b92915050565b6000819050919050565b6000610b7b610b76610b7184610a6d565b610b56565b610a6d565b9050919050565b6000610b8d82610b60565b9050919050565b6000610b9f82610b82565b9050919050565b610baf81610b94565b82525050565b6000602082019050610bca6000830184610ba6565b92915050565b610bd981610af8565b8114610be457600080fd5b50565b600081359050610bf681610bd0565b92915050565b600060208284031215610c1257610c11610a68565b5b6000610c2084828501610be7565b91505092915050565b600082825260208201905092915050565b7f4e6f7420656e6f7567682065746865722073656e740000000000000000000000600082015250565b6000610c70601583610c29565b9150610c7b82610c3a565b602082019050919050565b60006020820190508181036000830152610c9f81610c63565b9050919050565b7f4e487b7100000000000000000000000000000000000000000000000000000000600052601160045260246000fd5b6000610ce082610af8565b9150610ceb83610af8565b9250827fffffffffffffffffffffffffffffffffffffffffffffffffffffffffffffffff03821115610d2057610d1f610ca6565b5b828201905092915050565b7f4e487b7100000000000000000000000000000000000000000000000000000000600052603260045260246000fd5b6000610d6582610af8565b91507fffffffffffffffffffffffffffffffffffffffffffffffffffffffffffffffff821415610d9857610d97610ca6565b5b600182019050919050565b7f4e487b7100000000000000000000000000000000000000000000000000000000600052604160045260246000fd5b600081905092915050565b50565b6000610ded600083610dd2565b9150610df882610ddd565b600082019050919050565b6000610e0e82610de0565b9150819050919050565b7f43616c6c206661696c6564000000000000000000000000000000000000000000600082015250565b6000610e4e600b83610c29565b9150610e5982610e18565b602082019050919050565b60006020820190508181036000830152610e7d81610e41565b9050919050565b6000610e8f82610af8565b9150610e9a83610af8565b9250817fffffffffffffffffffffffffffffffffffffffffffffffffffffffffffffffff0483118215151615610ed357610ed2610ca6565b5b828202905092915050565b7f4e487b7100000000000000000000000000000000000000000000000000000000600052601260045260246000fd5b6000610f1882610af8565b9150610f2383610af8565b925082610f3357610f32610ede565b5b828204905092915050565b600069ffffffffffffffffffff82169050919050565b610f5d81610f3e565b8114610f6857600080fd5b50565b600081519050610f7a81610f54565b92915050565b6000819050919050565b610f9381610f80565b8114610f9e57600080fd5b50565b600081519050610fb081610f8a565b92915050565b600081519050610fc581610bd0565b92915050565b600080600080600060a08688031215610fe757610fe6610a68565b5b6000610ff588828901610f6b565b955050602061100688828901610fa1565b945050604061101788828901610fb6565b935050606061102888828901610fb6565b925050608061103988828901610f6b565b9150509295509295909350565b600061105182610f80565b915061105c83610f80565b9250827f7fffffffffffffffffffffffffffffffffffffffffffffffffffffffffffffff048211600084136000841316161561109b5761109a610ca6565b5b817f800000000000000000000000000000000000000000000000000000000000000005831260008412600084131616156110d8576110d7610ca6565b5b827f8000000000000000000000000000000000000000000000000000000000000000058212600084136000841216161561111557611114610ca6565b5b827f7fffffffffffffffffffffffffffffffffffffffffffffffffffffffffffffff058212600084126000841216161561115257611151610ca6565b5b82820290509291505056fea264697066735822122094169bdd53c512a72946dcaafec312fabb26c28b6cd2ff8fd7827ca1290b3aa764736f6c63430008080033",
  "devdoc": {
    "kind": "dev",
    "methods": {},
    "version": 1
  },
  "userdoc": {
    "kind": "user",
    "methods": {},
    "version": 1
  },
  "storageLayout": {
    "storage": [
      {
        "astId": 63,
        "contract": "contracts/FundMe.sol:FundMe",
        "label": "s_funders",
        "offset": 0,
        "slot": "0",
        "type": "t_array(t_address)dyn_storage"
      },
      {
        "astId": 67,
        "contract": "contracts/FundMe.sol:FundMe",
        "label": "s_addressToAmountFunded",
        "offset": 0,
        "slot": "1",
        "type": "t_mapping(t_address,t_uint256)"
      },
      {
        "astId": 70,
        "contract": "contracts/FundMe.sol:FundMe",
        "label": "s_priceFeed",
        "offset": 0,
        "slot": "2",
        "type": "t_contract(AggregatorV3Interface)45"
      }
    ],
    "types": {
      "t_address": {
        "encoding": "inplace",
        "label": "address",
        "numberOfBytes": "20"
      },
      "t_array(t_address)dyn_storage": {
        "base": "t_address",
        "encoding": "dynamic_array",
        "label": "address[]",
        "numberOfBytes": "32"
      },
      "t_contract(AggregatorV3Interface)45": {
        "encoding": "inplace",
        "label": "contract AggregatorV3Interface",
        "numberOfBytes": "20"
      },
      "t_mapping(t_address,t_uint256)": {
        "encoding": "mapping",
        "key": "t_address",
        "label": "mapping(address => uint256)",
        "numberOfBytes": "32",
        "value": "t_uint256"
      },
      "t_uint256": {
        "encoding": "inplace",
        "label": "uint256",
        "numberOfBytes": "32"
      }
    }
  }
}