{
  "address": "0xcE6594151757b8cd078C3D6BEC3674E37Efc062f",
  "abi": [
    {
      "inputs": [
        {
          "internalType": "address",
          "name": "priceFeedAddress",
          "type": "address"
        }
      ],
      "stateMutability": "nonpayable",
      "type": "constructor"
    },
    {
      "inputs": [],
      "name": "NotOwner",
      "type": "error"
    },
    {
      "stateMutability": "nonpayable",
      "type": "fallback"
    },
    {
      "inputs": [],
      "name": "MINIMUM_USD",
      "outputs": [
        {
          "internalType": "uint256",
          "name": "",
          "type": "uint256"
        }
      ],
      "stateMutability": "view",
      "type": "function"
    },
    {
      "inputs": [
        {
          "internalType": "address",
          "name": "",
          "type": "address"
        }
      ],
      "name": "addressToAmountFunded",
      "outputs": [
        {
          "internalType": "uint256",
          "name": "",
          "type": "uint256"
        }
      ],
      "stateMutability": "view",
      "type": "function"
    },
    {
      "inputs": [],
      "name": "fund",
      "outputs": [],
      "stateMutability": "payable",
      "type": "function"
    },
    {
      "inputs": [
        {
          "internalType": "uint256",
          "name": "",
          "type": "uint256"
        }
      ],
      "name": "funders",
      "outputs": [
        {
          "internalType": "address",
          "name": "",
          "type": "address"
        }
      ],
      "stateMutability": "view",
      "type": "function"
    },
    {
      "inputs": [],
      "name": "owner",
      "outputs": [
        {
          "internalType": "address",
          "name": "",
          "type": "address"
        }
      ],
      "stateMutability": "view",
      "type": "function"
    },
    {
      "inputs": [],
      "name": "priceFeed",
      "outputs": [
        {
          "internalType": "contract AggregatorV3Interface",
          "name": "",
          "type": "address"
        }
      ],
      "stateMutability": "view",
      "type": "function"
    },
    {
      "inputs": [],
      "name": "withdraw",
      "outputs": [],
      "stateMutability": "nonpayable",
      "type": "function"
    },
    {
      "stateMutability": "payable",
      "type": "receive"
    }
  ],
  "transactionHash": "0x387dd6ec4c0943bc967adb0ea82668e4f49edde2fe5b48f52e8d1a8a43c5d617",
  "args": [
    "0x694AA1769357215DE4FAC081bf1f309aDC325306"
  ],
  "numDeployments": 1,
  "solcInputHash": "cba65be11c99f608ea3368928038f42f",
  "bytecode": "0x608060405234801561001057600080fd5b5060405162000fe838038062000fe88339818101604052810190610034919061011e565b336000806101000a81548173ffffffffffffffffffffffffffffffffffffffff021916908373ffffffffffffffffffffffffffffffffffffffff16021790555080600360006101000a81548173ffffffffffffffffffffffffffffffffffffffff021916908373ffffffffffffffffffffffffffffffffffffffff1602179055505061014b565b600080fd5b600073ffffffffffffffffffffffffffffffffffffffff82169050919050565b60006100eb826100c0565b9050919050565b6100fb816100e0565b811461010657600080fd5b50565b600081519050610118816100f2565b92915050565b600060208284031215610134576101336100bb565b5b600061014284828501610109565b91505092915050565b610e8d806200015b6000396000f3fe6080604052600436106100745760003560e01c8063741bef1a1161004e578063741bef1a146101195780638da5cb5b14610144578063b60d42881461016f578063dc0d3dff1461017957610083565b80633ccfd60b1461009a5780633e47d6f3146100b15780636b69a592146100ee57610083565b36610083576100816101b6565b005b34801561008f57600080fd5b506100986101b6565b005b3480156100a657600080fd5b506100af6102f0565b005b3480156100bd57600080fd5b506100d860048036038101906100d391906107c5565b610531565b6040516100e5919061080b565b60405180910390f35b3480156100fa57600080fd5b50610103610549565b604051610110919061080b565b60405180910390f35b34801561012557600080fd5b5061012e610556565b60405161013b9190610885565b60405180910390f35b34801561015057600080fd5b5061015961057c565b60405161016691906108af565b60405180910390f35b6101776101b6565b005b34801561018557600080fd5b506101a0600480360381019061019b91906108f6565b6105a0565b6040516101ad91906108af565b60405180910390f35b6802b5e3af16b18800006101f5600360009054906101000a900473ffffffffffffffffffffffffffffffffffffffff16346105df90919063ffffffff16565b11610235576040517f08c379a000000000000000000000000000000000000000000000000000000000815260040161022c90610980565b60405180910390fd5b6001339080600181540180825580915050600190039060005260206000200160009091909190916101000a81548173ffffffffffffffffffffffffffffffffffffffff021916908373ffffffffffffffffffffffffffffffffffffffff16021790555034600260003373ffffffffffffffffffffffffffffffffffffffff1673ffffffffffffffffffffffffffffffffffffffff16815260200190815260200160002060008282546102e791906109cf565b92505081905550565b60008054906101000a900473ffffffffffffffffffffffffffffffffffffffff1673ffffffffffffffffffffffffffffffffffffffff163373ffffffffffffffffffffffffffffffffffffffff1614610375576040517f30cd747100000000000000000000000000000000000000000000000000000000815260040160405180910390fd5b60005b6001805490508110156104215760006001828154811061039b5761039a610a25565b5b9060005260206000200160009054906101000a900473ffffffffffffffffffffffffffffffffffffffff1690506000600260008373ffffffffffffffffffffffffffffffffffffffff1673ffffffffffffffffffffffffffffffffffffffff1681526020019081526020016000208190555050808061041990610a54565b915050610378565b50600067ffffffffffffffff81111561043d5761043c610a9d565b5b60405190808252806020026020018201604052801561046b5781602001602082028036833780820191505090505b50600190805190602001906104819291906106bb565b5060003373ffffffffffffffffffffffffffffffffffffffff16476040516104a890610afd565b60006040518083038185875af1925050503d80600081146104e5576040519150601f19603f3d011682016040523d82523d6000602084013e6104ea565b606091505b505090508061052e576040517f08c379a000000000000000000000000000000000000000000000000000000000815260040161052590610b5e565b60405180910390fd5b50565b60026020528060005260406000206000915090505481565b6802b5e3af16b188000081565b600360009054906101000a900473ffffffffffffffffffffffffffffffffffffffff1681565b60008054906101000a900473ffffffffffffffffffffffffffffffffffffffff1681565b600181815481106105b057600080fd5b906000526020600020016000915054906101000a900473ffffffffffffffffffffffffffffffffffffffff1681565b6000806105eb8361061b565b90506000670de0b6b3a764000085836106049190610b7e565b61060e9190610c07565b9050809250505092915050565b6000808273ffffffffffffffffffffffffffffffffffffffff1663feaf968c6040518163ffffffff1660e01b815260040160a06040518083038186803b15801561066457600080fd5b505afa158015610678573d6000803e3d6000fd5b505050506040513d601f19601f8201168201806040525081019061069c9190610cc5565b5050509150506402540be400816106b39190610d40565b915050919050565b828054828255906000526020600020908101928215610734579160200282015b828111156107335782518260006101000a81548173ffffffffffffffffffffffffffffffffffffffff021916908373ffffffffffffffffffffffffffffffffffffffff160217905550916020019190600101906106db565b5b5090506107419190610745565b5090565b5b8082111561075e576000816000905550600101610746565b5090565b600080fd5b600073ffffffffffffffffffffffffffffffffffffffff82169050919050565b600061079282610767565b9050919050565b6107a281610787565b81146107ad57600080fd5b50565b6000813590506107bf81610799565b92915050565b6000602082840312156107db576107da610762565b5b60006107e9848285016107b0565b91505092915050565b6000819050919050565b610805816107f2565b82525050565b600060208201905061082060008301846107fc565b92915050565b6000819050919050565b600061084b61084661084184610767565b610826565b610767565b9050919050565b600061085d82610830565b9050919050565b600061086f82610852565b9050919050565b61087f81610864565b82525050565b600060208201905061089a6000830184610876565b92915050565b6108a981610787565b82525050565b60006020820190506108c460008301846108a0565b92915050565b6108d3816107f2565b81146108de57600080fd5b50565b6000813590506108f0816108ca565b92915050565b60006020828403121561090c5761090b610762565b5b600061091a848285016108e1565b91505092915050565b600082825260208201905092915050565b7f4e6f7420656e6f7567682065746865722073656e740000000000000000000000600082015250565b600061096a601583610923565b915061097582610934565b602082019050919050565b600060208201905081810360008301526109998161095d565b9050919050565b7f4e487b7100000000000000000000000000000000000000000000000000000000600052601160045260246000fd5b60006109da826107f2565b91506109e5836107f2565b9250827fffffffffffffffffffffffffffffffffffffffffffffffffffffffffffffffff03821115610a1a57610a196109a0565b5b828201905092915050565b7f4e487b7100000000000000000000000000000000000000000000000000000000600052603260045260246000fd5b6000610a5f826107f2565b91507fffffffffffffffffffffffffffffffffffffffffffffffffffffffffffffffff821415610a9257610a916109a0565b5b600182019050919050565b7f4e487b7100000000000000000000000000000000000000000000000000000000600052604160045260246000fd5b600081905092915050565b50565b6000610ae7600083610acc565b9150610af282610ad7565b600082019050919050565b6000610b0882610ada565b9150819050919050565b7f43616c6c206661696c6564000000000000000000000000000000000000000000600082015250565b6000610b48600b83610923565b9150610b5382610b12565b602082019050919050565b60006020820190508181036000830152610b7781610b3b565b9050919050565b6000610b89826107f2565b9150610b94836107f2565b9250817fffffffffffffffffffffffffffffffffffffffffffffffffffffffffffffffff0483118215151615610bcd57610bcc6109a0565b5b828202905092915050565b7f4e487b7100000000000000000000000000000000000000000000000000000000600052601260045260246000fd5b6000610c12826107f2565b9150610c1d836107f2565b925082610c2d57610c2c610bd8565b5b828204905092915050565b600069ffffffffffffffffffff82169050919050565b610c5781610c38565b8114610c6257600080fd5b50565b600081519050610c7481610c4e565b92915050565b6000819050919050565b610c8d81610c7a565b8114610c9857600080fd5b50565b600081519050610caa81610c84565b92915050565b600081519050610cbf816108ca565b92915050565b600080600080600060a08688031215610ce157610ce0610762565b5b6000610cef88828901610c65565b9550506020610d0088828901610c9b565b9450506040610d1188828901610cb0565b9350506060610d2288828901610cb0565b9250506080610d3388828901610c65565b9150509295509295909350565b6000610d4b82610c7a565b9150610d5683610c7a565b9250827f7fffffffffffffffffffffffffffffffffffffffffffffffffffffffffffffff0482116000841360008413161615610d9557610d946109a0565b5b817f80000000000000000000000000000000000000000000000000000000000000000583126000841260008413161615610dd257610dd16109a0565b5b827f80000000000000000000000000000000000000000000000000000000000000000582126000841360008412161615610e0f57610e0e6109a0565b5b827f7fffffffffffffffffffffffffffffffffffffffffffffffffffffffffffffff0582126000841260008412161615610e4c57610e4b6109a0565b5b82820290509291505056fea26469706673582212203a859d003b289a6f25dd639e2fdf1f38f974a4cd4ec0cb42eadc37286ce4f6d664736f6c63430008080033",
  "devdoc": {
    "kind": "dev",
    "methods": {},
    "version": 1
  },
  "userdoc": {
    "kind": "user",
    "methods": {},
    "version": 1
  },
  "storageLayout": {
    "storage": [
      {
        "astId": 55,
        "contract": "contracts/FundMe.sol:FundMe",
        "label": "owner",
        "offset": 0,
        "slot": "0",
        "type": "t_address"
      },
      {
        "astId": 63,
        "contract": "contracts/FundMe.sol:FundMe",
        "label": "funders",
        "offset": 0,
        "slot": "1",
        "type": "t_array(t_address)dyn_storage"
      },
      {
        "astId": 67,
        "contract": "contracts/FundMe.sol:FundMe",
        "label": "addressToAmountFunded",
        "offset": 0,
        "slot": "2",
        "type": "t_mapping(t_address,t_uint256)"
      },
      {
        "astId": 70,
        "contract": "contracts/FundMe.sol:FundMe",
        "label": "priceFeed",
        "offset": 0,
        "slot": "3",
        "type": "t_contract(AggregatorV3Interface)45"
      }
    ],
    "types": {
      "t_address": {
        "encoding": "inplace",
        "label": "address",
        "numberOfBytes": "20"
      },
      "t_array(t_address)dyn_storage": {
        "base": "t_address",
        "encoding": "dynamic_array",
        "label": "address[]",
        "numberOfBytes": "32"
      },
      "t_contract(AggregatorV3Interface)45": {
        "encoding": "inplace",
        "label": "contract AggregatorV3Interface",
        "numberOfBytes": "20"
      },
      "t_mapping(t_address,t_uint256)": {
        "encoding": "mapping",
        "key": "t_address",
        "label": "mapping(address => uint256)",
        "numberOfBytes": "32",
        "value": "t_uint256"
      },
      "t_uint256": {
        "encoding": "inplace",
        "label": "uint256",
        "numberOfBytes": "32"
      }
    }
  }
}